{
  "_format": "hh-sol-artifact-1",
  "contractName": "Lottery",
  "sourceName": "contracts/Lottery.sol",
  "abi": [
    {
      "inputs": [
        {
          "internalType": "string",
          "name": "tokenName",
          "type": "string"
        },
        {
          "internalType": "string",
          "name": "tokenSymbol",
          "type": "string"
        },
        {
          "internalType": "uint256",
          "name": "_purchaseRatio",
          "type": "uint256"
        },
        {
          "internalType": "uint256",
          "name": "_betPrice",
          "type": "uint256"
        },
        {
          "internalType": "uint256",
          "name": "_betFee",
          "type": "uint256"
        }
      ],
      "stateMutability": "nonpayable",
      "type": "constructor"
    },
    {
      "anonymous": false,
      "inputs": [
        {
          "indexed": true,
          "internalType": "address",
          "name": "previousOwner",
          "type": "address"
        },
        {
          "indexed": true,
          "internalType": "address",
          "name": "newOwner",
          "type": "address"
        }
      ],
      "name": "OwnershipTransferred",
      "type": "event"
    },
    {
      "inputs": [],
      "name": "bet",
      "outputs": [],
      "stateMutability": "nonpayable",
      "type": "function"
    },
    {
      "inputs": [],
      "name": "betFee",
      "outputs": [
        {
          "internalType": "uint256",
          "name": "",
          "type": "uint256"
        }
      ],
      "stateMutability": "view",
      "type": "function"
    },
    {
      "inputs": [
        {
          "internalType": "uint256",
          "name": "times",
          "type": "uint256"
        }
      ],
      "name": "betMany",
      "outputs": [],
      "stateMutability": "nonpayable",
      "type": "function"
    },
    {
      "inputs": [],
      "name": "betPrice",
      "outputs": [
        {
          "internalType": "uint256",
          "name": "",
          "type": "uint256"
        }
      ],
      "stateMutability": "view",
      "type": "function"
    },
    {
      "inputs": [],
      "name": "betsClosingTime",
      "outputs": [
        {
          "internalType": "uint256",
          "name": "",
          "type": "uint256"
        }
      ],
      "stateMutability": "view",
      "type": "function"
    },
    {
      "inputs": [],
      "name": "betsOpen",
      "outputs": [
        {
          "internalType": "bool",
          "name": "",
          "type": "bool"
        }
      ],
      "stateMutability": "view",
      "type": "function"
    },
    {
      "inputs": [],
      "name": "closeLottery",
      "outputs": [],
      "stateMutability": "nonpayable",
      "type": "function"
    },
    {
      "inputs": [],
      "name": "getRandomNumber",
      "outputs": [
        {
          "internalType": "uint256",
          "name": "randomNumber",
          "type": "uint256"
        }
      ],
      "stateMutability": "view",
      "type": "function"
    },
    {
      "inputs": [
        {
          "internalType": "uint256",
          "name": "closingTime",
          "type": "uint256"
        }
      ],
      "name": "openBets",
      "outputs": [],
      "stateMutability": "nonpayable",
      "type": "function"
    },
    {
      "inputs": [],
      "name": "owner",
      "outputs": [
        {
          "internalType": "address",
          "name": "",
          "type": "address"
        }
      ],
      "stateMutability": "view",
      "type": "function"
    },
    {
      "inputs": [],
      "name": "ownerPool",
      "outputs": [
        {
          "internalType": "uint256",
          "name": "",
          "type": "uint256"
        }
      ],
      "stateMutability": "view",
      "type": "function"
    },
    {
      "inputs": [
        {
          "internalType": "uint256",
          "name": "amount",
          "type": "uint256"
        }
      ],
      "name": "ownerWithdraw",
      "outputs": [],
      "stateMutability": "nonpayable",
      "type": "function"
    },
    {
      "inputs": [],
      "name": "paymentToken",
      "outputs": [
        {
          "internalType": "contract LotteryToken",
          "name": "",
          "type": "address"
        }
      ],
      "stateMutability": "view",
      "type": "function"
    },
    {
      "inputs": [
        {
          "internalType": "address",
          "name": "",
          "type": "address"
        }
      ],
      "name": "prize",
      "outputs": [
        {
          "internalType": "uint256",
          "name": "",
          "type": "uint256"
        }
      ],
      "stateMutability": "view",
      "type": "function"
    },
    {
      "inputs": [],
      "name": "prizePool",
      "outputs": [
        {
          "internalType": "uint256",
          "name": "",
          "type": "uint256"
        }
      ],
      "stateMutability": "view",
      "type": "function"
    },
    {
      "inputs": [
        {
          "internalType": "uint256",
          "name": "amount",
          "type": "uint256"
        }
      ],
      "name": "prizeWithdraw",
      "outputs": [],
      "stateMutability": "nonpayable",
      "type": "function"
    },
    {
      "inputs": [],
      "name": "purchaseRatio",
      "outputs": [
        {
          "internalType": "uint256",
          "name": "",
          "type": "uint256"
        }
      ],
      "stateMutability": "view",
      "type": "function"
    },
    {
      "inputs": [],
      "name": "purchaseTokens",
      "outputs": [],
      "stateMutability": "payable",
      "type": "function"
    },
    {
      "inputs": [],
      "name": "renounceOwnership",
      "outputs": [],
      "stateMutability": "nonpayable",
      "type": "function"
    },
    {
      "inputs": [
        {
          "internalType": "uint256",
          "name": "amount",
          "type": "uint256"
        }
      ],
      "name": "returnTokens",
      "outputs": [],
      "stateMutability": "nonpayable",
      "type": "function"
    },
    {
      "inputs": [
        {
          "internalType": "address",
          "name": "newOwner",
          "type": "address"
        }
      ],
      "name": "transferOwnership",
      "outputs": [],
      "stateMutability": "nonpayable",
      "type": "function"
    }
  ],
  "bytecode": "0x60806040523480156200001157600080fd5b50604051620049143803806200491483398181016040528101906200003791906200039a565b620000576200004b620000f260201b60201c565b620000fa60201b60201c565b84846040516200006790620001be565b62000074929190620004bd565b604051809103906000f08015801562000091573d6000803e3d6000fd5b50600160006101000a81548173ffffffffffffffffffffffffffffffffffffffff021916908373ffffffffffffffffffffffffffffffffffffffff1602179055508260028190555081600381905550806004819055505050505050620004f8565b600033905090565b60008060009054906101000a900473ffffffffffffffffffffffffffffffffffffffff169050816000806101000a81548173ffffffffffffffffffffffffffffffffffffffff021916908373ffffffffffffffffffffffffffffffffffffffff1602179055508173ffffffffffffffffffffffffffffffffffffffff168173ffffffffffffffffffffffffffffffffffffffff167f8be0079c531659141344cd1fd0a4f28419497f9722a3daafe3b4186f6b6457e060405160405180910390a35050565b612c118062001d0383390190565b6000604051905090565b600080fd5b600080fd5b600080fd5b600080fd5b6000601f19601f8301169050919050565b7f4e487b7100000000000000000000000000000000000000000000000000000000600052604160045260246000fd5b6200023582620001ea565b810181811067ffffffffffffffff82111715620002575762000256620001fb565b5b80604052505050565b60006200026c620001cc565b90506200027a82826200022a565b919050565b600067ffffffffffffffff8211156200029d576200029c620001fb565b5b620002a882620001ea565b9050602081019050919050565b60005b83811015620002d5578082015181840152602081019050620002b8565b60008484015250505050565b6000620002f8620002f2846200027f565b62000260565b905082815260208101848484011115620003175762000316620001e5565b5b62000324848285620002b5565b509392505050565b600082601f830112620003445762000343620001e0565b5b815162000356848260208601620002e1565b91505092915050565b6000819050919050565b62000374816200035f565b81146200038057600080fd5b50565b600081519050620003948162000369565b92915050565b600080600080600060a08688031215620003b957620003b8620001d6565b5b600086015167ffffffffffffffff811115620003da57620003d9620001db565b5b620003e8888289016200032c565b955050602086015167ffffffffffffffff8111156200040c576200040b620001db565b5b6200041a888289016200032c565b94505060406200042d8882890162000383565b9350506060620004408882890162000383565b9250506080620004538882890162000383565b9150509295509295909350565b600081519050919050565b600082825260208201905092915050565b6000620004898262000460565b6200049581856200046b565b9350620004a7818560208601620002b5565b620004b281620001ea565b840191505092915050565b60006040820190508181036000830152620004d981856200047c565b90508181036020830152620004ef81846200047c565b90509392505050565b6117fb80620005086000396000f3fe6080604052600436106100fa5760003560e01c806311610c25146100ff57806318c34965146101165780632b65e040146101415780633013ce291461016c5780633290ce291461019757806333f707d1146101a15780633ae1786f146101ca5780633cc121e6146101f35780636fd098161461021c578063715018a614610233578063719ce73e1461024a578063729e91e914610275578063841e6ce91461029e5780638adf9c1f146102c95780638da5cb5b1461030657806395cadc4714610331578063990a49f51461035c578063cfd8a17514610385578063d1b258ff146103b0578063dbdff2c1146103db578063f2fde38b14610406575b600080fd5b34801561010b57600080fd5b5061011461042f565b005b34801561012257600080fd5b5061012b6105d8565b6040516101389190610f43565b60405180910390f35b34801561014d57600080fd5b506101566105de565b6040516101639190610f43565b60405180910390f35b34801561017857600080fd5b506101816105e4565b60405161018e9190610fdd565b60405180910390f35b61019f61060a565b005b3480156101ad57600080fd5b506101c860048036038101906101c39190611029565b6106a8565b005b3480156101d657600080fd5b506101f160048036038101906101ec9190611029565b6107b2565b005b3480156101ff57600080fd5b5061021a60048036038101906102159190611029565b610898565b005b34801561022857600080fd5b50610231610a14565b005b34801561023f57600080fd5b50610248610ba3565b005b34801561025657600080fd5b5061025f610bb7565b60405161026c9190610f43565b60405180910390f35b34801561028157600080fd5b5061029c60048036038101906102979190611029565b610bbd565b005b3480156102aa57600080fd5b506102b3610bf2565b6040516102c09190610f43565b60405180910390f35b3480156102d557600080fd5b506102f060048036038101906102eb9190611094565b610bf8565b6040516102fd9190610f43565b60405180910390f35b34801561031257600080fd5b5061031b610c10565b60405161032891906110d0565b60405180910390f35b34801561033d57600080fd5b50610346610c39565b6040516103539190610f43565b60405180910390f35b34801561036857600080fd5b50610383600480360381019061037e9190611029565b610c3f565b005b34801561039157600080fd5b5061039a610cfe565b6040516103a79190610f43565b60405180910390f35b3480156103bc57600080fd5b506103c5610d04565b6040516103d29190611106565b60405180910390f35b3480156103e757600080fd5b506103f0610d17565b6040516103fd9190610f43565b60405180910390f35b34801561041257600080fd5b5061042d60048036038101906104289190611094565b610d1f565b005b600760009054906101000a900460ff16801561044c575060085442105b61048b576040517f08c379a00000000000000000000000000000000000000000000000000000000081526004016104829061117e565b60405180910390fd5b6004546006600082825461049f91906111cd565b92505081905550600354600560008282546104ba91906111cd565b92505081905550600a339080600181540180825580915050600190039060005260206000200160009091909190916101000a81548173ffffffffffffffffffffffffffffffffffffffff021916908373ffffffffffffffffffffffffffffffffffffffff160217905550600160009054906101000a900473ffffffffffffffffffffffffffffffffffffffff1673ffffffffffffffffffffffffffffffffffffffff166323b872dd333060045460035461057491906111cd565b6040518463ffffffff1660e01b815260040161059293929190611201565b6020604051808303816000875af11580156105b1573d6000803e3d6000fd5b505050506040513d601f19601f820116820180604052508101906105d59190611264565b50565b60085481565b60065481565b600160009054906101000a900473ffffffffffffffffffffffffffffffffffffffff1681565b600160009054906101000a900473ffffffffffffffffffffffffffffffffffffffff1673ffffffffffffffffffffffffffffffffffffffff166340c10f1933600254346106579190611291565b6040518363ffffffff1660e01b81526004016106749291906112d3565b600060405180830381600087803b15801561068e57600080fd5b505af11580156106a2573d6000803e3d6000fd5b50505050565b6106b0610da2565b6006548111156106f5576040517f08c379a00000000000000000000000000000000000000000000000000000000081526004016106ec90611348565b60405180910390fd5b80600660008282546107079190611368565b92505081905550600160009054906101000a900473ffffffffffffffffffffffffffffffffffffffff1673ffffffffffffffffffffffffffffffffffffffff1663a9059cbb33836040518363ffffffff1660e01b815260040161076b9291906112d3565b6020604051808303816000875af115801561078a573d6000803e3d6000fd5b505050506040513d601f19601f820116820180604052508101906107ae9190611264565b5050565b600160009054906101000a900473ffffffffffffffffffffffffffffffffffffffff1673ffffffffffffffffffffffffffffffffffffffff166379cc679033836040518363ffffffff1660e01b815260040161080f9291906112d3565b600060405180830381600087803b15801561082957600080fd5b505af115801561083d573d6000803e3d6000fd5b505050503373ffffffffffffffffffffffffffffffffffffffff166108fc6002548361086991906113cb565b9081150290604051600060405180830381858888f19350505050158015610894573d6000803e3d6000fd5b5050565b600960003373ffffffffffffffffffffffffffffffffffffffff1673ffffffffffffffffffffffffffffffffffffffff1681526020019081526020016000205481111561091a576040517f08c379a000000000000000000000000000000000000000000000000000000000815260040161091190611448565b60405180910390fd5b80600960003373ffffffffffffffffffffffffffffffffffffffff1673ffffffffffffffffffffffffffffffffffffffff16815260200190815260200160002060008282546109699190611368565b92505081905550600160009054906101000a900473ffffffffffffffffffffffffffffffffffffffff1673ffffffffffffffffffffffffffffffffffffffff1663a9059cbb33836040518363ffffffff1660e01b81526004016109cd9291906112d3565b6020604051808303816000875af11580156109ec573d6000803e3d6000fd5b505050506040513d601f19601f82011682018060405250810190610a109190611264565b5050565b600854421015610a59576040517f08c379a0000000000000000000000000000000000000000000000000000000008152600401610a50906114b4565b60405180910390fd5b600760009054906101000a900460ff16610aa8576040517f08c379a0000000000000000000000000000000000000000000000000000000008152600401610a9f90611520565b60405180910390fd5b6000600a805490501115610b86576000600a80549050610ac6610d17565b610ad09190611540565b90506000600a8281548110610ae857610ae7611571565b5b9060005260206000200160009054906101000a900473ffffffffffffffffffffffffffffffffffffffff169050600554600960008373ffffffffffffffffffffffffffffffffffffffff1673ffffffffffffffffffffffffffffffffffffffff1681526020019081526020016000206000828254610b6691906111cd565b925050819055506000600581905550600a6000610b839190610eec565b50505b6000600760006101000a81548160ff021916908315150217905550565b610bab610da2565b610bb56000610e20565b565b60055481565b60008111610bca57600080fd5b5b6000811115610bef57610bdc61042f565b8080610be7906115a0565b915050610bcb565b50565b60045481565b60096020528060005260406000206000915090505481565b60008060009054906101000a900473ffffffffffffffffffffffffffffffffffffffff16905090565b60025481565b610c47610da2565b600760009054906101000a900460ff1615610c97576040517f08c379a0000000000000000000000000000000000000000000000000000000008152600401610c8e90611615565b60405180910390fd5b428111610cd9576040517f08c379a0000000000000000000000000000000000000000000000000000000008152600401610cd0906116a7565b60405180910390fd5b806008819055506001600760006101000a81548160ff02191690831515021790555050565b60035481565b600760009054906101000a900460ff1681565b600044905090565b610d27610da2565b600073ffffffffffffffffffffffffffffffffffffffff168173ffffffffffffffffffffffffffffffffffffffff1603610d96576040517f08c379a0000000000000000000000000000000000000000000000000000000008152600401610d8d90611739565b60405180910390fd5b610d9f81610e20565b50565b610daa610ee4565b73ffffffffffffffffffffffffffffffffffffffff16610dc8610c10565b73ffffffffffffffffffffffffffffffffffffffff1614610e1e576040517f08c379a0000000000000000000000000000000000000000000000000000000008152600401610e15906117a5565b60405180910390fd5b565b60008060009054906101000a900473ffffffffffffffffffffffffffffffffffffffff169050816000806101000a81548173ffffffffffffffffffffffffffffffffffffffff021916908373ffffffffffffffffffffffffffffffffffffffff1602179055508173ffffffffffffffffffffffffffffffffffffffff168173ffffffffffffffffffffffffffffffffffffffff167f8be0079c531659141344cd1fd0a4f28419497f9722a3daafe3b4186f6b6457e060405160405180910390a35050565b600033905090565b5080546000825590600052602060002090810190610f0a9190610f0d565b50565b5b80821115610f26576000816000905550600101610f0e565b5090565b6000819050919050565b610f3d81610f2a565b82525050565b6000602082019050610f586000830184610f34565b92915050565b600073ffffffffffffffffffffffffffffffffffffffff82169050919050565b6000819050919050565b6000610fa3610f9e610f9984610f5e565b610f7e565b610f5e565b9050919050565b6000610fb582610f88565b9050919050565b6000610fc782610faa565b9050919050565b610fd781610fbc565b82525050565b6000602082019050610ff26000830184610fce565b92915050565b600080fd5b61100681610f2a565b811461101157600080fd5b50565b60008135905061102381610ffd565b92915050565b60006020828403121561103f5761103e610ff8565b5b600061104d84828501611014565b91505092915050565b600061106182610f5e565b9050919050565b61107181611056565b811461107c57600080fd5b50565b60008135905061108e81611068565b92915050565b6000602082840312156110aa576110a9610ff8565b5b60006110b88482850161107f565b91505092915050565b6110ca81611056565b82525050565b60006020820190506110e560008301846110c1565b92915050565b60008115159050919050565b611100816110eb565b82525050565b600060208201905061111b60008301846110f7565b92915050565b600082825260208201905092915050565b7f4c6f747465727920697320636c6f736564000000000000000000000000000000600082015250565b6000611168601183611121565b915061117382611132565b602082019050919050565b600060208201905081810360008301526111978161115b565b9050919050565b7f4e487b7100000000000000000000000000000000000000000000000000000000600052601160045260246000fd5b60006111d882610f2a565b91506111e383610f2a565b92508282019050808211156111fb576111fa61119e565b5b92915050565b600060608201905061121660008301866110c1565b61122360208301856110c1565b6112306040830184610f34565b949350505050565b611241816110eb565b811461124c57600080fd5b50565b60008151905061125e81611238565b92915050565b60006020828403121561127a57611279610ff8565b5b60006112888482850161124f565b91505092915050565b600061129c82610f2a565b91506112a783610f2a565b92508282026112b581610f2a565b915082820484148315176112cc576112cb61119e565b5b5092915050565b60006040820190506112e860008301856110c1565b6112f56020830184610f34565b9392505050565b7f4e6f7420656e6f756768206665657320636f6c6c656374656400000000000000600082015250565b6000611332601983611121565b915061133d826112fc565b602082019050919050565b6000602082019050818103600083015261136181611325565b9050919050565b600061137382610f2a565b915061137e83610f2a565b92508282039050818111156113965761139561119e565b5b92915050565b7f4e487b7100000000000000000000000000000000000000000000000000000000600052601260045260246000fd5b60006113d682610f2a565b91506113e183610f2a565b9250826113f1576113f061139c565b5b828204905092915050565b7f4e6f7420656e6f756768207072697a6500000000000000000000000000000000600082015250565b6000611432601083611121565b915061143d826113fc565b602082019050919050565b6000602082019050818103600083015261146181611425565b9050919050565b7f546f6f20736f6f6e20746f20636c6f7365000000000000000000000000000000600082015250565b600061149e601183611121565b91506114a982611468565b602082019050919050565b600060208201905081810360008301526114cd81611491565b9050919050565b7f416c726561647920636c6f736564000000000000000000000000000000000000600082015250565b600061150a600e83611121565b9150611515826114d4565b602082019050919050565b60006020820190508181036000830152611539816114fd565b9050919050565b600061154b82610f2a565b915061155683610f2a565b9250826115665761156561139c565b5b828206905092915050565b7f4e487b7100000000000000000000000000000000000000000000000000000000600052603260045260246000fd5b60006115ab82610f2a565b9150600082036115be576115bd61119e565b5b600182039050919050565b7f4c6f7474657279206973206f70656e0000000000000000000000000000000000600082015250565b60006115ff600f83611121565b915061160a826115c9565b602082019050919050565b6000602082019050818103600083015261162e816115f2565b9050919050565b7f436c6f73696e672074696d65206d75737420626520696e20746865206675747560008201527f7265000000000000000000000000000000000000000000000000000000000000602082015250565b6000611691602283611121565b915061169c82611635565b604082019050919050565b600060208201905081810360008301526116c081611684565b9050919050565b7f4f776e61626c653a206e6577206f776e657220697320746865207a65726f206160008201527f6464726573730000000000000000000000000000000000000000000000000000602082015250565b6000611723602683611121565b915061172e826116c7565b604082019050919050565b6000602082019050818103600083015261175281611716565b9050919050565b7f4f776e61626c653a2063616c6c6572206973206e6f7420746865206f776e6572600082015250565b600061178f602083611121565b915061179a82611759565b602082019050919050565b600060208201905081810360008301526117be81611782565b905091905056fea264697066735822122091671ac31cef25b5ca104dc11caad02a3f2d301ad45fbebf259de6c5b6518a2d64736f6c6343000812003360806040523480156200001157600080fd5b5060405162002c1138038062002c118339818101604052810190620000379190620003a6565b818181600390816200004a919062000676565b5080600490816200005c919062000676565b505050620000746000801b33620000ae60201b60201c565b620000a67f9f2df0fed2c77648de5860a4cc508cd0818c85b8b8a1ab4ceeef8d981c8956a633620000ae60201b60201c565b50506200075d565b620000c08282620001a060201b60201c565b6200019c5760016005600084815260200190815260200160002060000160008373ffffffffffffffffffffffffffffffffffffffff1673ffffffffffffffffffffffffffffffffffffffff16815260200190815260200160002060006101000a81548160ff021916908315150217905550620001416200020b60201b60201c565b73ffffffffffffffffffffffffffffffffffffffff168173ffffffffffffffffffffffffffffffffffffffff16837f2f8788117e7eff1d82e926ec794901d17c78024a50270940304540a733656f0d60405160405180910390a45b5050565b60006005600084815260200190815260200160002060000160008373ffffffffffffffffffffffffffffffffffffffff1673ffffffffffffffffffffffffffffffffffffffff16815260200190815260200160002060009054906101000a900460ff16905092915050565b600033905090565b6000604051905090565b600080fd5b600080fd5b600080fd5b600080fd5b6000601f19601f8301169050919050565b7f4e487b7100000000000000000000000000000000000000000000000000000000600052604160045260246000fd5b6200027c8262000231565b810181811067ffffffffffffffff821117156200029e576200029d62000242565b5b80604052505050565b6000620002b362000213565b9050620002c1828262000271565b919050565b600067ffffffffffffffff821115620002e457620002e362000242565b5b620002ef8262000231565b9050602081019050919050565b60005b838110156200031c578082015181840152602081019050620002ff565b60008484015250505050565b60006200033f6200033984620002c6565b620002a7565b9050828152602081018484840111156200035e576200035d6200022c565b5b6200036b848285620002fc565b509392505050565b600082601f8301126200038b576200038a62000227565b5b81516200039d84826020860162000328565b91505092915050565b60008060408385031215620003c057620003bf6200021d565b5b600083015167ffffffffffffffff811115620003e157620003e062000222565b5b620003ef8582860162000373565b925050602083015167ffffffffffffffff81111562000413576200041262000222565b5b620004218582860162000373565b9150509250929050565b600081519050919050565b7f4e487b7100000000000000000000000000000000000000000000000000000000600052602260045260246000fd5b600060028204905060018216806200047e57607f821691505b60208210810362000494576200049362000436565b5b50919050565b60008190508160005260206000209050919050565b60006020601f8301049050919050565b600082821b905092915050565b600060088302620004fe7fffffffffffffffffffffffffffffffffffffffffffffffffffffffffffffffff82620004bf565b6200050a8683620004bf565b95508019841693508086168417925050509392505050565b6000819050919050565b6000819050919050565b600062000557620005516200054b8462000522565b6200052c565b62000522565b9050919050565b6000819050919050565b620005738362000536565b6200058b62000582826200055e565b848454620004cc565b825550505050565b600090565b620005a262000593565b620005af81848462000568565b505050565b5b81811015620005d757620005cb60008262000598565b600181019050620005b5565b5050565b601f8211156200062657620005f0816200049a565b620005fb84620004af565b810160208510156200060b578190505b620006236200061a85620004af565b830182620005b4565b50505b505050565b600082821c905092915050565b60006200064b600019846008026200062b565b1980831691505092915050565b600062000666838362000638565b9150826002028217905092915050565b62000681826200042b565b67ffffffffffffffff8111156200069d576200069c62000242565b5b620006a9825462000465565b620006b6828285620005db565b600060209050601f831160018114620006ee5760008415620006d9578287015190505b620006e5858262000658565b86555062000755565b601f198416620006fe866200049a565b60005b82811015620007285784890151825560018201915060208501945060208101905062000701565b8683101562000748578489015162000744601f89168262000638565b8355505b6001600288020188555050505b505050505050565b6124a4806200076d6000396000f3fe608060405234801561001057600080fd5b50600436106101125760003560e01c806301ffc9a71461011757806306fdde0314610147578063095ea7b31461016557806318160ddd1461019557806323b872dd146101b3578063248a9ca3146101e35780632f2ff15d14610213578063313ce5671461022f57806336568abe1461024d578063395093511461026957806340c10f191461029957806342966c68146102b557806370a08231146102d157806379cc67901461030157806391d148541461031d57806395d89b411461034d578063a217fddf1461036b578063a457c2d714610389578063a9059cbb146103b9578063d5391393146103e9578063d547741f14610407578063dd62ed3e14610423575b600080fd5b610131600480360381019061012c919061176a565b610453565b60405161013e91906117b2565b60405180910390f35b61014f6104cd565b60405161015c919061185d565b60405180910390f35b61017f600480360381019061017a9190611913565b61055f565b60405161018c91906117b2565b60405180910390f35b61019d610582565b6040516101aa9190611962565b60405180910390f35b6101cd60048036038101906101c8919061197d565b61058c565b6040516101da91906117b2565b60405180910390f35b6101fd60048036038101906101f89190611a06565b6105bb565b60405161020a9190611a42565b60405180910390f35b61022d60048036038101906102289190611a5d565b6105db565b005b6102376105fc565b6040516102449190611ab9565b60405180910390f35b61026760048036038101906102629190611a5d565b610605565b005b610283600480360381019061027e9190611913565b610688565b60405161029091906117b2565b60405180910390f35b6102b360048036038101906102ae9190611913565b6106bf565b005b6102cf60048036038101906102ca9190611ad4565b6106f8565b005b6102eb60048036038101906102e69190611b01565b61070c565b6040516102f89190611962565b60405180910390f35b61031b60048036038101906103169190611913565b610754565b005b61033760048036038101906103329190611a5d565b610774565b60405161034491906117b2565b60405180910390f35b6103556107df565b604051610362919061185d565b60405180910390f35b610373610871565b6040516103809190611a42565b60405180910390f35b6103a3600480360381019061039e9190611913565b610878565b6040516103b091906117b2565b60405180910390f35b6103d360048036038101906103ce9190611913565b6108ef565b6040516103e091906117b2565b60405180910390f35b6103f1610912565b6040516103fe9190611a42565b60405180910390f35b610421600480360381019061041c9190611a5d565b610936565b005b61043d60048036038101906104389190611b2e565b610957565b60405161044a9190611962565b60405180910390f35b60007f7965db0b000000000000000000000000000000000000000000000000000000007bffffffffffffffffffffffffffffffffffffffffffffffffffffffff1916827bffffffffffffffffffffffffffffffffffffffffffffffffffffffff191614806104c657506104c5826109de565b5b9050919050565b6060600380546104dc90611b9d565b80601f016020809104026020016040519081016040528092919081815260200182805461050890611b9d565b80156105555780601f1061052a57610100808354040283529160200191610555565b820191906000526020600020905b81548152906001019060200180831161053857829003601f168201915b5050505050905090565b60008061056a610a48565b9050610577818585610a50565b600191505092915050565b6000600254905090565b600080610597610a48565b90506105a4858285610c19565b6105af858585610ca5565b60019150509392505050565b600060056000838152602001908152602001600020600101549050919050565b6105e4826105bb565b6105ed81610f1b565b6105f78383610f2f565b505050565b60006012905090565b61060d610a48565b73ffffffffffffffffffffffffffffffffffffffff168173ffffffffffffffffffffffffffffffffffffffff161461067a576040517f08c379a000000000000000000000000000000000000000000000000000000000815260040161067190611c40565b60405180910390fd5b6106848282611010565b5050565b600080610693610a48565b90506106b48185856106a58589610957565b6106af9190611c8f565b610a50565b600191505092915050565b7f9f2df0fed2c77648de5860a4cc508cd0818c85b8b8a1ab4ceeef8d981c8956a66106e981610f1b565b6106f383836110f2565b505050565b610709610703610a48565b82611248565b50565b60008060008373ffffffffffffffffffffffffffffffffffffffff1673ffffffffffffffffffffffffffffffffffffffff168152602001908152602001600020549050919050565b61076682610760610a48565b83610c19565b6107708282611248565b5050565b60006005600084815260200190815260200160002060000160008373ffffffffffffffffffffffffffffffffffffffff1673ffffffffffffffffffffffffffffffffffffffff16815260200190815260200160002060009054906101000a900460ff16905092915050565b6060600480546107ee90611b9d565b80601f016020809104026020016040519081016040528092919081815260200182805461081a90611b9d565b80156108675780601f1061083c57610100808354040283529160200191610867565b820191906000526020600020905b81548152906001019060200180831161084a57829003601f168201915b5050505050905090565b6000801b81565b600080610883610a48565b905060006108918286610957565b9050838110156108d6576040517f08c379a00000000000000000000000000000000000000000000000000000000081526004016108cd90611d35565b60405180910390fd5b6108e38286868403610a50565b60019250505092915050565b6000806108fa610a48565b9050610907818585610ca5565b600191505092915050565b7f9f2df0fed2c77648de5860a4cc508cd0818c85b8b8a1ab4ceeef8d981c8956a681565b61093f826105bb565b61094881610f1b565b6109528383611010565b505050565b6000600160008473ffffffffffffffffffffffffffffffffffffffff1673ffffffffffffffffffffffffffffffffffffffff16815260200190815260200160002060008373ffffffffffffffffffffffffffffffffffffffff1673ffffffffffffffffffffffffffffffffffffffff16815260200190815260200160002054905092915050565b60007f01ffc9a7000000000000000000000000000000000000000000000000000000007bffffffffffffffffffffffffffffffffffffffffffffffffffffffff1916827bffffffffffffffffffffffffffffffffffffffffffffffffffffffff1916149050919050565b600033905090565b600073ffffffffffffffffffffffffffffffffffffffff168373ffffffffffffffffffffffffffffffffffffffff1603610abf576040517f08c379a0000000000000000000000000000000000000000000000000000000008152600401610ab690611dc7565b60405180910390fd5b600073ffffffffffffffffffffffffffffffffffffffff168273ffffffffffffffffffffffffffffffffffffffff1603610b2e576040517f08c379a0000000000000000000000000000000000000000000000000000000008152600401610b2590611e59565b60405180910390fd5b80600160008573ffffffffffffffffffffffffffffffffffffffff1673ffffffffffffffffffffffffffffffffffffffff16815260200190815260200160002060008473ffffffffffffffffffffffffffffffffffffffff1673ffffffffffffffffffffffffffffffffffffffff168152602001908152602001600020819055508173ffffffffffffffffffffffffffffffffffffffff168373ffffffffffffffffffffffffffffffffffffffff167f8c5be1e5ebec7d5bd14f71427d1e84f3dd0314c0f7b2291e5b200ac8c7c3b92583604051610c0c9190611962565b60405180910390a3505050565b6000610c258484610957565b90507fffffffffffffffffffffffffffffffffffffffffffffffffffffffffffffffff8114610c9f5781811015610c91576040517f08c379a0000000000000000000000000000000000000000000000000000000008152600401610c8890611ec5565b60405180910390fd5b610c9e8484848403610a50565b5b50505050565b600073ffffffffffffffffffffffffffffffffffffffff168373ffffffffffffffffffffffffffffffffffffffff1603610d14576040517f08c379a0000000000000000000000000000000000000000000000000000000008152600401610d0b90611f57565b60405180910390fd5b600073ffffffffffffffffffffffffffffffffffffffff168273ffffffffffffffffffffffffffffffffffffffff1603610d83576040517f08c379a0000000000000000000000000000000000000000000000000000000008152600401610d7a90611fe9565b60405180910390fd5b610d8e838383611415565b60008060008573ffffffffffffffffffffffffffffffffffffffff1673ffffffffffffffffffffffffffffffffffffffff16815260200190815260200160002054905081811015610e14576040517f08c379a0000000000000000000000000000000000000000000000000000000008152600401610e0b9061207b565b60405180910390fd5b8181036000808673ffffffffffffffffffffffffffffffffffffffff1673ffffffffffffffffffffffffffffffffffffffff16815260200190815260200160002081905550816000808573ffffffffffffffffffffffffffffffffffffffff1673ffffffffffffffffffffffffffffffffffffffff168152602001908152602001600020600082825401925050819055508273ffffffffffffffffffffffffffffffffffffffff168473ffffffffffffffffffffffffffffffffffffffff167fddf252ad1be2c89b69c2b068fc378daa952ba7f163c4a11628f55a4df523b3ef84604051610f029190611962565b60405180910390a3610f1584848461141a565b50505050565b610f2c81610f27610a48565b61141f565b50565b610f398282610774565b61100c5760016005600084815260200190815260200160002060000160008373ffffffffffffffffffffffffffffffffffffffff1673ffffffffffffffffffffffffffffffffffffffff16815260200190815260200160002060006101000a81548160ff021916908315150217905550610fb1610a48565b73ffffffffffffffffffffffffffffffffffffffff168173ffffffffffffffffffffffffffffffffffffffff16837f2f8788117e7eff1d82e926ec794901d17c78024a50270940304540a733656f0d60405160405180910390a45b5050565b61101a8282610774565b156110ee5760006005600084815260200190815260200160002060000160008373ffffffffffffffffffffffffffffffffffffffff1673ffffffffffffffffffffffffffffffffffffffff16815260200190815260200160002060006101000a81548160ff021916908315150217905550611093610a48565b73ffffffffffffffffffffffffffffffffffffffff168173ffffffffffffffffffffffffffffffffffffffff16837ff6391f5c32d9c69d2a47ea670b442974b53935d1edc7fd64eb21e047a839171b60405160405180910390a45b5050565b600073ffffffffffffffffffffffffffffffffffffffff168273ffffffffffffffffffffffffffffffffffffffff1603611161576040517f08c379a0000000000000000000000000000000000000000000000000000000008152600401611158906120e7565b60405180910390fd5b61116d60008383611415565b806002600082825461117f9190611c8f565b92505081905550806000808473ffffffffffffffffffffffffffffffffffffffff1673ffffffffffffffffffffffffffffffffffffffff168152602001908152602001600020600082825401925050819055508173ffffffffffffffffffffffffffffffffffffffff16600073ffffffffffffffffffffffffffffffffffffffff167fddf252ad1be2c89b69c2b068fc378daa952ba7f163c4a11628f55a4df523b3ef836040516112309190611962565b60405180910390a36112446000838361141a565b5050565b600073ffffffffffffffffffffffffffffffffffffffff168273ffffffffffffffffffffffffffffffffffffffff16036112b7576040517f08c379a00000000000000000000000000000000000000000000000000000000081526004016112ae90612179565b60405180910390fd5b6112c382600083611415565b60008060008473ffffffffffffffffffffffffffffffffffffffff1673ffffffffffffffffffffffffffffffffffffffff16815260200190815260200160002054905081811015611349576040517f08c379a00000000000000000000000000000000000000000000000000000000081526004016113409061220b565b60405180910390fd5b8181036000808573ffffffffffffffffffffffffffffffffffffffff1673ffffffffffffffffffffffffffffffffffffffff1681526020019081526020016000208190555081600260008282540392505081905550600073ffffffffffffffffffffffffffffffffffffffff168373ffffffffffffffffffffffffffffffffffffffff167fddf252ad1be2c89b69c2b068fc378daa952ba7f163c4a11628f55a4df523b3ef846040516113fc9190611962565b60405180910390a36114108360008461141a565b505050565b505050565b505050565b6114298282610774565b6114a057611436816114a4565b6114448360001c60206114d1565b6040516020016114559291906122ff565b6040516020818303038152906040526040517f08c379a0000000000000000000000000000000000000000000000000000000008152600401611497919061185d565b60405180910390fd5b5050565b60606114ca8273ffffffffffffffffffffffffffffffffffffffff16601460ff166114d1565b9050919050565b6060600060028360026114e49190612339565b6114ee9190611c8f565b67ffffffffffffffff8111156115075761150661237b565b5b6040519080825280601f01601f1916602001820160405280156115395781602001600182028036833780820191505090505b5090507f300000000000000000000000000000000000000000000000000000000000000081600081518110611571576115706123aa565b5b60200101907effffffffffffffffffffffffffffffffffffffffffffffffffffffffffffff1916908160001a9053507f7800000000000000000000000000000000000000000000000000000000000000816001815181106115d5576115d46123aa565b5b60200101907effffffffffffffffffffffffffffffffffffffffffffffffffffffffffffff1916908160001a905350600060018460026116159190612339565b61161f9190611c8f565b90505b60018111156116bf577f3031323334353637383961626364656600000000000000000000000000000000600f861660108110611661576116606123aa565b5b1a60f81b828281518110611678576116776123aa565b5b60200101907effffffffffffffffffffffffffffffffffffffffffffffffffffffffffffff1916908160001a905350600485901c9450806116b8906123d9565b9050611622565b5060008414611703576040517f08c379a00000000000000000000000000000000000000000000000000000000081526004016116fa9061244e565b60405180910390fd5b8091505092915050565b600080fd5b60007fffffffff0000000000000000000000000000000000000000000000000000000082169050919050565b61174781611712565b811461175257600080fd5b50565b6000813590506117648161173e565b92915050565b6000602082840312156117805761177f61170d565b5b600061178e84828501611755565b91505092915050565b60008115159050919050565b6117ac81611797565b82525050565b60006020820190506117c760008301846117a3565b92915050565b600081519050919050565b600082825260208201905092915050565b60005b838110156118075780820151818401526020810190506117ec565b60008484015250505050565b6000601f19601f8301169050919050565b600061182f826117cd565b61183981856117d8565b93506118498185602086016117e9565b61185281611813565b840191505092915050565b600060208201905081810360008301526118778184611824565b905092915050565b600073ffffffffffffffffffffffffffffffffffffffff82169050919050565b60006118aa8261187f565b9050919050565b6118ba8161189f565b81146118c557600080fd5b50565b6000813590506118d7816118b1565b92915050565b6000819050919050565b6118f0816118dd565b81146118fb57600080fd5b50565b60008135905061190d816118e7565b92915050565b6000806040838503121561192a5761192961170d565b5b6000611938858286016118c8565b9250506020611949858286016118fe565b9150509250929050565b61195c816118dd565b82525050565b60006020820190506119776000830184611953565b92915050565b6000806000606084860312156119965761199561170d565b5b60006119a4868287016118c8565b93505060206119b5868287016118c8565b92505060406119c6868287016118fe565b9150509250925092565b6000819050919050565b6119e3816119d0565b81146119ee57600080fd5b50565b600081359050611a00816119da565b92915050565b600060208284031215611a1c57611a1b61170d565b5b6000611a2a848285016119f1565b91505092915050565b611a3c816119d0565b82525050565b6000602082019050611a576000830184611a33565b92915050565b60008060408385031215611a7457611a7361170d565b5b6000611a82858286016119f1565b9250506020611a93858286016118c8565b9150509250929050565b600060ff82169050919050565b611ab381611a9d565b82525050565b6000602082019050611ace6000830184611aaa565b92915050565b600060208284031215611aea57611ae961170d565b5b6000611af8848285016118fe565b91505092915050565b600060208284031215611b1757611b1661170d565b5b6000611b25848285016118c8565b91505092915050565b60008060408385031215611b4557611b4461170d565b5b6000611b53858286016118c8565b9250506020611b64858286016118c8565b9150509250929050565b7f4e487b7100000000000000000000000000000000000000000000000000000000600052602260045260246000fd5b60006002820490506001821680611bb557607f821691505b602082108103611bc857611bc7611b6e565b5b50919050565b7f416363657373436f6e74726f6c3a2063616e206f6e6c792072656e6f756e636560008201527f20726f6c657320666f722073656c660000000000000000000000000000000000602082015250565b6000611c2a602f836117d8565b9150611c3582611bce565b604082019050919050565b60006020820190508181036000830152611c5981611c1d565b9050919050565b7f4e487b7100000000000000000000000000000000000000000000000000000000600052601160045260246000fd5b6000611c9a826118dd565b9150611ca5836118dd565b9250828201905080821115611cbd57611cbc611c60565b5b92915050565b7f45524332303a2064656372656173656420616c6c6f77616e63652062656c6f7760008201527f207a65726f000000000000000000000000000000000000000000000000000000602082015250565b6000611d1f6025836117d8565b9150611d2a82611cc3565b604082019050919050565b60006020820190508181036000830152611d4e81611d12565b9050919050565b7f45524332303a20617070726f76652066726f6d20746865207a65726f2061646460008201527f7265737300000000000000000000000000000000000000000000000000000000602082015250565b6000611db16024836117d8565b9150611dbc82611d55565b604082019050919050565b60006020820190508181036000830152611de081611da4565b9050919050565b7f45524332303a20617070726f766520746f20746865207a65726f20616464726560008201527f7373000000000000000000000000000000000000000000000000000000000000602082015250565b6000611e436022836117d8565b9150611e4e82611de7565b604082019050919050565b60006020820190508181036000830152611e7281611e36565b9050919050565b7f45524332303a20696e73756666696369656e7420616c6c6f77616e6365000000600082015250565b6000611eaf601d836117d8565b9150611eba82611e79565b602082019050919050565b60006020820190508181036000830152611ede81611ea2565b9050919050565b7f45524332303a207472616e736665722066726f6d20746865207a65726f20616460008201527f6472657373000000000000000000000000000000000000000000000000000000602082015250565b6000611f416025836117d8565b9150611f4c82611ee5565b604082019050919050565b60006020820190508181036000830152611f7081611f34565b9050919050565b7f45524332303a207472616e7366657220746f20746865207a65726f206164647260008201527f6573730000000000000000000000000000000000000000000000000000000000602082015250565b6000611fd36023836117d8565b9150611fde82611f77565b604082019050919050565b6000602082019050818103600083015261200281611fc6565b9050919050565b7f45524332303a207472616e7366657220616d6f756e742065786365656473206260008201527f616c616e63650000000000000000000000000000000000000000000000000000602082015250565b60006120656026836117d8565b915061207082612009565b604082019050919050565b6000602082019050818103600083015261209481612058565b9050919050565b7f45524332303a206d696e7420746f20746865207a65726f206164647265737300600082015250565b60006120d1601f836117d8565b91506120dc8261209b565b602082019050919050565b60006020820190508181036000830152612100816120c4565b9050919050565b7f45524332303a206275726e2066726f6d20746865207a65726f2061646472657360008201527f7300000000000000000000000000000000000000000000000000000000000000602082015250565b60006121636021836117d8565b915061216e82612107565b604082019050919050565b6000602082019050818103600083015261219281612156565b9050919050565b7f45524332303a206275726e20616d6f756e7420657863656564732062616c616e60008201527f6365000000000000000000000000000000000000000000000000000000000000602082015250565b60006121f56022836117d8565b915061220082612199565b604082019050919050565b60006020820190508181036000830152612224816121e8565b9050919050565b600081905092915050565b7f416363657373436f6e74726f6c3a206163636f756e7420000000000000000000600082015250565b600061226c60178361222b565b915061227782612236565b601782019050919050565b600061228d826117cd565b612297818561222b565b93506122a78185602086016117e9565b80840191505092915050565b7f206973206d697373696e6720726f6c6520000000000000000000000000000000600082015250565b60006122e960118361222b565b91506122f4826122b3565b601182019050919050565b600061230a8261225f565b91506123168285612282565b9150612321826122dc565b915061232d8284612282565b91508190509392505050565b6000612344826118dd565b915061234f836118dd565b925082820261235d816118dd565b9150828204841483151761237457612373611c60565b5b5092915050565b7f4e487b7100000000000000000000000000000000000000000000000000000000600052604160045260246000fd5b7f4e487b7100000000000000000000000000000000000000000000000000000000600052603260045260246000fd5b60006123e4826118dd565b9150600082036123f7576123f6611c60565b5b600182039050919050565b7f537472696e67733a20686578206c656e67746820696e73756666696369656e74600082015250565b60006124386020836117d8565b915061244382612402565b602082019050919050565b600060208201905081810360008301526124678161242b565b905091905056fea26469706673582212209430ee92184e4e72f8bc514fdd3e7ec11df563ad16bcba19ac9b87f42fc4e9ed64736f6c63430008120033",
  "linkReferences": {},
  "deployedLinkReferences": {}
}